{
  "contractName": "NFTCollection",
  "abi": [
    {
      "inputs": [
        {
          "internalType": "string",
          "name": "baseURI",
          "type": "string"
        },
        {
          "internalType": "string",
          "name": "name",
          "type": "string"
        },
        {
          "internalType": "string",
          "name": "symbol",
          "type": "string"
        }
      ],
      "stateMutability": "nonpayable",
      "type": "constructor"
    },
    {
      "anonymous": false,
      "inputs": [
        {
          "indexed": true,
          "internalType": "address",
          "name": "owner",
          "type": "address"
        },
        {
          "indexed": true,
          "internalType": "address",
          "name": "approved",
          "type": "address"
        },
        {
          "indexed": true,
          "internalType": "uint256",
          "name": "tokenId",
          "type": "uint256"
        }
      ],
      "name": "Approval",
      "type": "event"
    },
    {
      "anonymous": false,
      "inputs": [
        {
          "indexed": true,
          "internalType": "address",
          "name": "owner",
          "type": "address"
        },
        {
          "indexed": true,
          "internalType": "address",
          "name": "operator",
          "type": "address"
        },
        {
          "indexed": false,
          "internalType": "bool",
          "name": "approved",
          "type": "bool"
        }
      ],
      "name": "ApprovalForAll",
      "type": "event"
    },
    {
      "anonymous": false,
      "inputs": [
        {
          "indexed": true,
          "internalType": "address",
          "name": "previousOwner",
          "type": "address"
        },
        {
          "indexed": true,
          "internalType": "address",
          "name": "newOwner",
          "type": "address"
        }
      ],
      "name": "OwnershipTransferred",
      "type": "event"
    },
    {
      "anonymous": false,
      "inputs": [
        {
          "indexed": true,
          "internalType": "address",
          "name": "from",
          "type": "address"
        },
        {
          "indexed": true,
          "internalType": "address",
          "name": "to",
          "type": "address"
        },
        {
          "indexed": true,
          "internalType": "uint256",
          "name": "tokenId",
          "type": "uint256"
        }
      ],
      "name": "Transfer",
      "type": "event"
    },
    {
      "inputs": [],
      "name": "MAX_PER_MINT",
      "outputs": [
        {
          "internalType": "uint256",
          "name": "",
          "type": "uint256"
        }
      ],
      "stateMutability": "view",
      "type": "function",
      "constant": true
    },
    {
      "inputs": [],
      "name": "MAX_SUPPLY",
      "outputs": [
        {
          "internalType": "uint256",
          "name": "",
          "type": "uint256"
        }
      ],
      "stateMutability": "view",
      "type": "function",
      "constant": true
    },
    {
      "inputs": [],
      "name": "PRICE",
      "outputs": [
        {
          "internalType": "uint256",
          "name": "",
          "type": "uint256"
        }
      ],
      "stateMutability": "view",
      "type": "function",
      "constant": true
    },
    {
      "inputs": [
        {
          "internalType": "address",
          "name": "to",
          "type": "address"
        },
        {
          "internalType": "uint256",
          "name": "tokenId",
          "type": "uint256"
        }
      ],
      "name": "approve",
      "outputs": [],
      "stateMutability": "nonpayable",
      "type": "function"
    },
    {
      "inputs": [
        {
          "internalType": "address",
          "name": "owner",
          "type": "address"
        }
      ],
      "name": "balanceOf",
      "outputs": [
        {
          "internalType": "uint256",
          "name": "",
          "type": "uint256"
        }
      ],
      "stateMutability": "view",
      "type": "function",
      "constant": true
    },
    {
      "inputs": [],
      "name": "baseTokenURI",
      "outputs": [
        {
          "internalType": "string",
          "name": "",
          "type": "string"
        }
      ],
      "stateMutability": "view",
      "type": "function",
      "constant": true
    },
    {
      "inputs": [
        {
          "internalType": "uint256",
          "name": "tokenId",
          "type": "uint256"
        }
      ],
      "name": "getApproved",
      "outputs": [
        {
          "internalType": "address",
          "name": "",
          "type": "address"
        }
      ],
      "stateMutability": "view",
      "type": "function",
      "constant": true
    },
    {
      "inputs": [
        {
          "internalType": "address",
          "name": "owner",
          "type": "address"
        },
        {
          "internalType": "address",
          "name": "operator",
          "type": "address"
        }
      ],
      "name": "isApprovedForAll",
      "outputs": [
        {
          "internalType": "bool",
          "name": "",
          "type": "bool"
        }
      ],
      "stateMutability": "view",
      "type": "function",
      "constant": true
    },
    {
      "inputs": [],
      "name": "name",
      "outputs": [
        {
          "internalType": "string",
          "name": "",
          "type": "string"
        }
      ],
      "stateMutability": "view",
      "type": "function",
      "constant": true
    },
    {
      "inputs": [],
      "name": "owner",
      "outputs": [
        {
          "internalType": "address",
          "name": "",
          "type": "address"
        }
      ],
      "stateMutability": "view",
      "type": "function",
      "constant": true
    },
    {
      "inputs": [
        {
          "internalType": "uint256",
          "name": "tokenId",
          "type": "uint256"
        }
      ],
      "name": "ownerOf",
      "outputs": [
        {
          "internalType": "address",
          "name": "",
          "type": "address"
        }
      ],
      "stateMutability": "view",
      "type": "function",
      "constant": true
    },
    {
      "inputs": [],
      "name": "renounceOwnership",
      "outputs": [],
      "stateMutability": "nonpayable",
      "type": "function"
    },
    {
      "inputs": [
        {
          "internalType": "address",
          "name": "from",
          "type": "address"
        },
        {
          "internalType": "address",
          "name": "to",
          "type": "address"
        },
        {
          "internalType": "uint256",
          "name": "tokenId",
          "type": "uint256"
        }
      ],
      "name": "safeTransferFrom",
      "outputs": [],
      "stateMutability": "nonpayable",
      "type": "function"
    },
    {
      "inputs": [
        {
          "internalType": "address",
          "name": "from",
          "type": "address"
        },
        {
          "internalType": "address",
          "name": "to",
          "type": "address"
        },
        {
          "internalType": "uint256",
          "name": "tokenId",
          "type": "uint256"
        },
        {
          "internalType": "bytes",
          "name": "data",
          "type": "bytes"
        }
      ],
      "name": "safeTransferFrom",
      "outputs": [],
      "stateMutability": "nonpayable",
      "type": "function"
    },
    {
      "inputs": [
        {
          "internalType": "address",
          "name": "operator",
          "type": "address"
        },
        {
          "internalType": "bool",
          "name": "approved",
          "type": "bool"
        }
      ],
      "name": "setApprovalForAll",
      "outputs": [],
      "stateMutability": "nonpayable",
      "type": "function"
    },
    {
      "inputs": [
        {
          "internalType": "bytes4",
          "name": "interfaceId",
          "type": "bytes4"
        }
      ],
      "name": "supportsInterface",
      "outputs": [
        {
          "internalType": "bool",
          "name": "",
          "type": "bool"
        }
      ],
      "stateMutability": "view",
      "type": "function",
      "constant": true
    },
    {
      "inputs": [],
      "name": "symbol",
      "outputs": [
        {
          "internalType": "string",
          "name": "",
          "type": "string"
        }
      ],
      "stateMutability": "view",
      "type": "function",
      "constant": true
    },
    {
      "inputs": [
        {
          "internalType": "uint256",
          "name": "index",
          "type": "uint256"
        }
      ],
      "name": "tokenByIndex",
      "outputs": [
        {
          "internalType": "uint256",
          "name": "",
          "type": "uint256"
        }
      ],
      "stateMutability": "view",
      "type": "function",
      "constant": true
    },
    {
      "inputs": [
        {
          "internalType": "address",
          "name": "owner",
          "type": "address"
        },
        {
          "internalType": "uint256",
          "name": "index",
          "type": "uint256"
        }
      ],
      "name": "tokenOfOwnerByIndex",
      "outputs": [
        {
          "internalType": "uint256",
          "name": "",
          "type": "uint256"
        }
      ],
      "stateMutability": "view",
      "type": "function",
      "constant": true
    },
    {
      "inputs": [],
      "name": "totalSupply",
      "outputs": [
        {
          "internalType": "uint256",
          "name": "",
          "type": "uint256"
        }
      ],
      "stateMutability": "view",
      "type": "function",
      "constant": true
    },
    {
      "inputs": [
        {
          "internalType": "address",
          "name": "from",
          "type": "address"
        },
        {
          "internalType": "address",
          "name": "to",
          "type": "address"
        },
        {
          "internalType": "uint256",
          "name": "tokenId",
          "type": "uint256"
        }
      ],
      "name": "transferFrom",
      "outputs": [],
      "stateMutability": "nonpayable",
      "type": "function"
    },
    {
      "inputs": [
        {
          "internalType": "address",
          "name": "newOwner",
          "type": "address"
        }
      ],
      "name": "transferOwnership",
      "outputs": [],
      "stateMutability": "nonpayable",
      "type": "function"
    },
    {
      "inputs": [
        {
          "internalType": "uint256",
          "name": "tokenId",
          "type": "uint256"
        }
      ],
      "name": "tokenURI",
      "outputs": [
        {
          "internalType": "string",
          "name": "",
          "type": "string"
        }
      ],
      "stateMutability": "view",
      "type": "function",
      "constant": true
    },
    {
      "inputs": [
        {
          "internalType": "string",
          "name": "_baseTokenURI",
          "type": "string"
        }
      ],
      "name": "setBaseURI",
      "outputs": [],
      "stateMutability": "nonpayable",
      "type": "function"
    },
    {
      "inputs": [
        {
          "internalType": "uint256",
          "name": "_count",
          "type": "uint256"
        }
      ],
      "name": "mintNFTs",
      "outputs": [],
      "stateMutability": "payable",
      "type": "function",
      "payable": true
    },
    {
      "inputs": [
        {
          "internalType": "address",
          "name": "_owner",
          "type": "address"
        }
      ],
      "name": "tokensOfOwner",
      "outputs": [
        {
          "internalType": "uint256[]",
          "name": "",
          "type": "uint256[]"
        }
      ],
      "stateMutability": "view",
      "type": "function",
      "constant": true
    },
    {
      "inputs": [],
      "name": "withdraw",
      "outputs": [],
      "stateMutability": "payable",
      "type": "function",
      "payable": true
    },
    {
      "inputs": [
        {
          "internalType": "uint256",
          "name": "_count",
          "type": "uint256"
        }
      ],
      "name": "reserveNFTs",
      "outputs": [],
      "stateMutability": "nonpayable",
      "type": "function"
    }
  ],
  "bytecode": "0x60806040523480156200001157600080fd5b50604051620044d7380380620044d78339818101604052810190620000379190620004a9565b81818160009080519060200190620000519291906200025c565b5080600190805190602001906200006a9291906200025c565b5050506200008d62000081620000a760201b60201c565b620000af60201b60201c565b6200009e836200017560201b60201c565b50505062000649565b600033905090565b6000600a60009054906101000a900473ffffffffffffffffffffffffffffffffffffffff16905081600a60006101000a81548173ffffffffffffffffffffffffffffffffffffffff021916908373ffffffffffffffffffffffffffffffffffffffff1602179055508173ffffffffffffffffffffffffffffffffffffffff168173ffffffffffffffffffffffffffffffffffffffff167f8be0079c531659141344cd1fd0a4f28419497f9722a3daafe3b4186f6b6457e060405160405180910390a35050565b62000185620001a160201b60201c565b80600c90805190602001906200019d9291906200025c565b5050565b620001b1620000a760201b60201c565b73ffffffffffffffffffffffffffffffffffffffff16620001d76200023260201b60201c565b73ffffffffffffffffffffffffffffffffffffffff161462000230576040517f08c379a00000000000000000000000000000000000000000000000000000000081526004016200022790620005c3565b60405180910390fd5b565b6000600a60009054906101000a900473ffffffffffffffffffffffffffffffffffffffff16905090565b8280546200026a9062000614565b90600052602060002090601f0160209004810192826200028e5760008555620002da565b82601f10620002a957805160ff1916838001178555620002da565b82800160010185558215620002da579182015b82811115620002d9578251825591602001919060010190620002bc565b5b509050620002e99190620002ed565b5090565b5b8082111562000308576000816000905550600101620002ee565b5090565b6000604051905090565b600080fd5b600080fd5b600080fd5b600080fd5b6000601f19601f8301169050919050565b7f4e487b7100000000000000000000000000000000000000000000000000000000600052604160045260246000fd5b62000375826200032a565b810181811067ffffffffffffffff821117156200039757620003966200033b565b5b80604052505050565b6000620003ac6200030c565b9050620003ba82826200036a565b919050565b600067ffffffffffffffff821115620003dd57620003dc6200033b565b5b620003e8826200032a565b9050602081019050919050565b60005b8381101562000415578082015181840152602081019050620003f8565b8381111562000425576000848401525b50505050565b6000620004426200043c84620003bf565b620003a0565b90508281526020810184848401111562000461576200046062000325565b5b6200046e848285620003f5565b509392505050565b600082601f8301126200048e576200048d62000320565b5b8151620004a08482602086016200042b565b91505092915050565b600080600060608486031215620004c557620004c462000316565b5b600084015167ffffffffffffffff811115620004e657620004e56200031b565b5b620004f48682870162000476565b935050602084015167ffffffffffffffff8111156200051857620005176200031b565b5b620005268682870162000476565b925050604084015167ffffffffffffffff8111156200054a57620005496200031b565b5b620005588682870162000476565b9150509250925092565b600082825260208201905092915050565b7f4f776e61626c653a2063616c6c6572206973206e6f7420746865206f776e6572600082015250565b6000620005ab60208362000562565b9150620005b88262000573565b602082019050919050565b60006020820190508181036000830152620005de816200059c565b9050919050565b7f4e487b7100000000000000000000000000000000000000000000000000000000600052602260045260246000fd5b600060028204905060018216806200062d57607f821691505b602082108103620006435762000642620005e5565b5b50919050565b613e7e80620006596000396000f3fe6080604052600436106101b75760003560e01c80636352211e116100ec578063a22cb4651161008a578063c87b56dd11610064578063c87b56dd146105f0578063d547cfb71461062d578063e985e9c514610658578063f2fde38b14610695576101b7565b8063a22cb46514610575578063b88d4fde1461059e578063bc7df091146105c7576101b7565b80638462151c116100c65780638462151c146104b75780638d859f3e146104f45780638da5cb5b1461051f57806395d89b411461054a576101b7565b80636352211e1461042657806370a0823114610463578063715018a6146104a0576101b7565b80632f745c59116101595780633ccfd60b116101335780633ccfd60b1461038d57806342842e0e146103975780634f6ccce7146103c057806355f804b3146103fd576101b7565b80632f745c591461030957806332cb6b0c146103465780633b4b138114610371576101b7565b8063095ea7b311610195578063095ea7b31461026157806309d42b301461028a57806318160ddd146102b557806323b872dd146102e0576101b7565b806301ffc9a7146101bc57806306fdde03146101f9578063081812fc14610224575b600080fd5b3480156101c857600080fd5b506101e360048036038101906101de919061285c565b6106be565b6040516101f091906128a4565b60405180910390f35b34801561020557600080fd5b5061020e610738565b60405161021b9190612958565b60405180910390f35b34801561023057600080fd5b5061024b600480360381019061024691906129b0565b6107ca565b6040516102589190612a1e565b60405180910390f35b34801561026d57600080fd5b5061028860048036038101906102839190612a65565b610810565b005b34801561029657600080fd5b5061029f610927565b6040516102ac9190612ab4565b60405180910390f35b3480156102c157600080fd5b506102ca61092c565b6040516102d79190612ab4565b60405180910390f35b3480156102ec57600080fd5b5061030760048036038101906103029190612acf565b610939565b005b34801561031557600080fd5b50610330600480360381019061032b9190612a65565b610999565b60405161033d9190612ab4565b60405180910390f35b34801561035257600080fd5b5061035b610a3e565b6040516103689190612ab4565b60405180910390f35b61038b600480360381019061038691906129b0565b610a43565b005b610395610b7d565b005b3480156103a357600080fd5b506103be60048036038101906103b99190612acf565b610c7d565b005b3480156103cc57600080fd5b506103e760048036038101906103e291906129b0565b610c9d565b6040516103f49190612ab4565b60405180910390f35b34801561040957600080fd5b50610424600480360381019061041f9190612c57565b610d0e565b005b34801561043257600080fd5b5061044d600480360381019061044891906129b0565b610d30565b60405161045a9190612a1e565b60405180910390f35b34801561046f57600080fd5b5061048a60048036038101906104859190612ca0565b610db6565b6040516104979190612ab4565b60405180910390f35b3480156104ac57600080fd5b506104b5610e6d565b005b3480156104c357600080fd5b506104de60048036038101906104d99190612ca0565b610e81565b6040516104eb9190612d8b565b60405180910390f35b34801561050057600080fd5b50610509610f2f565b6040516105169190612ab4565b60405180910390f35b34801561052b57600080fd5b50610534610f39565b6040516105419190612a1e565b60405180910390f35b34801561055657600080fd5b5061055f610f63565b60405161056c9190612958565b60405180910390f35b34801561058157600080fd5b5061059c60048036038101906105979190612dd9565b610ff5565b005b3480156105aa57600080fd5b506105c560048036038101906105c09190612eba565b61100b565b005b3480156105d357600080fd5b506105ee60048036038101906105e991906129b0565b61106d565b005b3480156105fc57600080fd5b50610617600480360381019061061291906129b0565b611103565b6040516106249190612958565b60405180910390f35b34801561063957600080fd5b50610642611161565b60405161064f9190612958565b60405180910390f35b34801561066457600080fd5b5061067f600480360381019061067a9190612f3d565b6111ef565b60405161068c91906128a4565b60405180910390f35b3480156106a157600080fd5b506106bc60048036038101906106b79190612ca0565b611283565b005b60007f780e9d63000000000000000000000000000000000000000000000000000000007bffffffffffffffffffffffffffffffffffffffffffffffffffffffff1916827bffffffffffffffffffffffffffffffffffffffffffffffffffffffff19161480610731575061073082611306565b5b9050919050565b60606000805461074790612fac565b80601f016020809104026020016040519081016040528092919081815260200182805461077390612fac565b80156107c05780601f10610795576101008083540402835291602001916107c0565b820191906000526020600020905b8154815290600101906020018083116107a357829003601f168201915b5050505050905090565b60006107d5826113e8565b6004600083815260200190815260200160002060009054906101000a900473ffffffffffffffffffffffffffffffffffffffff169050919050565b600061081b82610d30565b90508073ffffffffffffffffffffffffffffffffffffffff168373ffffffffffffffffffffffffffffffffffffffff160361088b576040517f08c379a00000000000000000000000000000000000000000000000000000000081526004016108829061304f565b60405180910390fd5b8073ffffffffffffffffffffffffffffffffffffffff166108aa611433565b73ffffffffffffffffffffffffffffffffffffffff1614806108d957506108d8816108d3611433565b6111ef565b5b610918576040517f08c379a000000000000000000000000000000000000000000000000000000000815260040161090f906130e1565b60405180910390fd5b610922838361143b565b505050565b600581565b6000600880549050905090565b61094a610944611433565b826114f4565b610989576040517f08c379a000000000000000000000000000000000000000000000000000000000815260040161098090613173565b60405180910390fd5b610994838383611589565b505050565b60006109a483610db6565b82106109e5576040517f08c379a00000000000000000000000000000000000000000000000000000000081526004016109dc90613205565b60405180910390fd5b600660008473ffffffffffffffffffffffffffffffffffffffff1673ffffffffffffffffffffffffffffffffffffffff168152602001908152602001600020600083815260200190815260200160002054905092915050565b600a81565b6000610a4f600b611882565b9050600a610a66838361189090919063ffffffff16565b1115610aa7576040517f08c379a0000000000000000000000000000000000000000000000000000000008152600401610a9e90613271565b60405180910390fd5b600082118015610ab8575060058211155b610af7576040517f08c379a0000000000000000000000000000000000000000000000000000000008152600401610aee90613303565b60405180910390fd5b610b10826509184e72a0006118a690919063ffffffff16565b341015610b52576040517f08c379a0000000000000000000000000000000000000000000000000000000008152600401610b4990613395565b60405180910390fd5b60005b82811015610b7857610b656118bc565b8080610b70906133e4565b915050610b55565b505050565b610b856118e1565b600047905060008111610bcd576040517f08c379a0000000000000000000000000000000000000000000000000000000008152600401610bc490613478565b60405180910390fd5b60003373ffffffffffffffffffffffffffffffffffffffff1682604051610bf3906134c9565b60006040518083038185875af1925050503d8060008114610c30576040519150601f19603f3d011682016040523d82523d6000602084013e610c35565b606091505b5050905080610c79576040517f08c379a0000000000000000000000000000000000000000000000000000000008152600401610c709061352a565b60405180910390fd5b5050565b610c988383836040518060200160405280600081525061100b565b505050565b6000610ca761092c565b8210610ce8576040517f08c379a0000000000000000000000000000000000000000000000000000000008152600401610cdf906135bc565b60405180910390fd5b60088281548110610cfc57610cfb6135dc565b5b90600052602060002001549050919050565b610d166118e1565b80600c9080519060200190610d2c92919061274d565b5050565b600080610d3c8361195f565b9050600073ffffffffffffffffffffffffffffffffffffffff168173ffffffffffffffffffffffffffffffffffffffff1603610dad576040517f08c379a0000000000000000000000000000000000000000000000000000000008152600401610da490613657565b60405180910390fd5b80915050919050565b60008073ffffffffffffffffffffffffffffffffffffffff168273ffffffffffffffffffffffffffffffffffffffff1603610e26576040517f08c379a0000000000000000000000000000000000000000000000000000000008152600401610e1d906136e9565b60405180910390fd5b600360008373ffffffffffffffffffffffffffffffffffffffff1673ffffffffffffffffffffffffffffffffffffffff168152602001908152602001600020549050919050565b610e756118e1565b610e7f600061199c565b565b60606000610e8e83610db6565b905060008167ffffffffffffffff811115610eac57610eab612b2c565b5b604051908082528060200260200182016040528015610eda5781602001602082028036833780820191505090505b50905060005b82811015610f2457610ef28582610999565b828281518110610f0557610f046135dc565b5b6020026020010181815250508080610f1c906133e4565b915050610ee0565b508092505050919050565b6509184e72a00081565b6000600a60009054906101000a900473ffffffffffffffffffffffffffffffffffffffff16905090565b606060018054610f7290612fac565b80601f0160208091040260200160405190810160405280929190818152602001828054610f9e90612fac565b8015610feb5780601f10610fc057610100808354040283529160200191610feb565b820191906000526020600020905b815481529060010190602001808311610fce57829003601f168201915b5050505050905090565b611007611000611433565b8383611a62565b5050565b61101c611016611433565b836114f4565b61105b576040517f08c379a000000000000000000000000000000000000000000000000000000000815260040161105290613173565b60405180910390fd5b61106784848484611bce565b50505050565b6110756118e1565b6000611081600b611882565b9050600a611098838361189090919063ffffffff16565b106110d8576040517f08c379a00000000000000000000000000000000000000000000000000000000081526004016110cf90613755565b60405180910390fd5b60005b828110156110fe576110eb6118bc565b80806110f6906133e4565b9150506110db565b505050565b606061110e826113e8565b6000611118611c2a565b905060008151116111385760405180602001604052806000815250611159565b8060405160200161114991906137b1565b6040516020818303038152906040525b915050919050565b600c805461116e90612fac565b80601f016020809104026020016040519081016040528092919081815260200182805461119a90612fac565b80156111e75780601f106111bc576101008083540402835291602001916111e7565b820191906000526020600020905b8154815290600101906020018083116111ca57829003601f168201915b505050505081565b6000600560008473ffffffffffffffffffffffffffffffffffffffff1673ffffffffffffffffffffffffffffffffffffffff16815260200190815260200160002060008373ffffffffffffffffffffffffffffffffffffffff1673ffffffffffffffffffffffffffffffffffffffff16815260200190815260200160002060009054906101000a900460ff16905092915050565b61128b6118e1565b600073ffffffffffffffffffffffffffffffffffffffff168173ffffffffffffffffffffffffffffffffffffffff16036112fa576040517f08c379a00000000000000000000000000000000000000000000000000000000081526004016112f19061383a565b60405180910390fd5b6113038161199c565b50565b60007f80ac58cd000000000000000000000000000000000000000000000000000000007bffffffffffffffffffffffffffffffffffffffffffffffffffffffff1916827bffffffffffffffffffffffffffffffffffffffffffffffffffffffff191614806113d157507f5b5e139f000000000000000000000000000000000000000000000000000000007bffffffffffffffffffffffffffffffffffffffffffffffffffffffff1916827bffffffffffffffffffffffffffffffffffffffffffffffffffffffff1916145b806113e157506113e082611cbc565b5b9050919050565b6113f181611d26565b611430576040517f08c379a000000000000000000000000000000000000000000000000000000000815260040161142790613657565b60405180910390fd5b50565b600033905090565b816004600083815260200190815260200160002060006101000a81548173ffffffffffffffffffffffffffffffffffffffff021916908373ffffffffffffffffffffffffffffffffffffffff160217905550808273ffffffffffffffffffffffffffffffffffffffff166114ae83610d30565b73ffffffffffffffffffffffffffffffffffffffff167f8c5be1e5ebec7d5bd14f71427d1e84f3dd0314c0f7b2291e5b200ac8c7c3b92560405160405180910390a45050565b60008061150083610d30565b90508073ffffffffffffffffffffffffffffffffffffffff168473ffffffffffffffffffffffffffffffffffffffff161480611542575061154181856111ef565b5b8061158057508373ffffffffffffffffffffffffffffffffffffffff16611568846107ca565b73ffffffffffffffffffffffffffffffffffffffff16145b91505092915050565b8273ffffffffffffffffffffffffffffffffffffffff166115a982610d30565b73ffffffffffffffffffffffffffffffffffffffff16146115ff576040517f08c379a00000000000000000000000000000000000000000000000000000000081526004016115f6906138cc565b60405180910390fd5b600073ffffffffffffffffffffffffffffffffffffffff168273ffffffffffffffffffffffffffffffffffffffff160361166e576040517f08c379a00000000000000000000000000000000000000000000000000000000081526004016116659061395e565b60405180910390fd5b61167b8383836001611d67565b8273ffffffffffffffffffffffffffffffffffffffff1661169b82610d30565b73ffffffffffffffffffffffffffffffffffffffff16146116f1576040517f08c379a00000000000000000000000000000000000000000000000000000000081526004016116e8906138cc565b60405180910390fd5b6004600082815260200190815260200160002060006101000a81549073ffffffffffffffffffffffffffffffffffffffff02191690556001600360008573ffffffffffffffffffffffffffffffffffffffff1673ffffffffffffffffffffffffffffffffffffffff168152602001908152602001600020600082825403925050819055506001600360008473ffffffffffffffffffffffffffffffffffffffff1673ffffffffffffffffffffffffffffffffffffffff16815260200190815260200160002060008282540192505081905550816002600083815260200190815260200160002060006101000a81548173ffffffffffffffffffffffffffffffffffffffff021916908373ffffffffffffffffffffffffffffffffffffffff160217905550808273ffffffffffffffffffffffffffffffffffffffff168473ffffffffffffffffffffffffffffffffffffffff167fddf252ad1be2c89b69c2b068fc378daa952ba7f163c4a11628f55a4df523b3ef60405160405180910390a461187d8383836001611ec5565b505050565b600081600001549050919050565b6000818361189e919061397e565b905092915050565b600081836118b491906139d4565b905092915050565b60006118c8600b611882565b90506118d43382611ecb565b6118de600b611ee9565b50565b6118e9611433565b73ffffffffffffffffffffffffffffffffffffffff16611907610f39565b73ffffffffffffffffffffffffffffffffffffffff161461195d576040517f08c379a000000000000000000000000000000000000000000000000000000000815260040161195490613a7a565b60405180910390fd5b565b60006002600083815260200190815260200160002060009054906101000a900473ffffffffffffffffffffffffffffffffffffffff169050919050565b6000600a60009054906101000a900473ffffffffffffffffffffffffffffffffffffffff16905081600a60006101000a81548173ffffffffffffffffffffffffffffffffffffffff021916908373ffffffffffffffffffffffffffffffffffffffff1602179055508173ffffffffffffffffffffffffffffffffffffffff168173ffffffffffffffffffffffffffffffffffffffff167f8be0079c531659141344cd1fd0a4f28419497f9722a3daafe3b4186f6b6457e060405160405180910390a35050565b8173ffffffffffffffffffffffffffffffffffffffff168373ffffffffffffffffffffffffffffffffffffffff1603611ad0576040517f08c379a0000000000000000000000000000000000000000000000000000000008152600401611ac790613ae6565b60405180910390fd5b80600560008573ffffffffffffffffffffffffffffffffffffffff1673ffffffffffffffffffffffffffffffffffffffff16815260200190815260200160002060008473ffffffffffffffffffffffffffffffffffffffff1673ffffffffffffffffffffffffffffffffffffffff16815260200190815260200160002060006101000a81548160ff0219169083151502179055508173ffffffffffffffffffffffffffffffffffffffff168373ffffffffffffffffffffffffffffffffffffffff167f17307eab39ab6107e8899845ad3d59bd9653f200f220920489ca2b5937696c3183604051611bc191906128a4565b60405180910390a3505050565b611bd9848484611589565b611be584848484611eff565b611c24576040517f08c379a0000000000000000000000000000000000000000000000000000000008152600401611c1b90613b78565b60405180910390fd5b50505050565b6060600c8054611c3990612fac565b80601f0160208091040260200160405190810160405280929190818152602001828054611c6590612fac565b8015611cb25780601f10611c8757610100808354040283529160200191611cb2565b820191906000526020600020905b815481529060010190602001808311611c9557829003601f168201915b5050505050905090565b60007f01ffc9a7000000000000000000000000000000000000000000000000000000007bffffffffffffffffffffffffffffffffffffffffffffffffffffffff1916827bffffffffffffffffffffffffffffffffffffffffffffffffffffffff1916149050919050565b60008073ffffffffffffffffffffffffffffffffffffffff16611d488361195f565b73ffffffffffffffffffffffffffffffffffffffff1614159050919050565b611d7384848484612086565b6001811115611db7576040517f08c379a0000000000000000000000000000000000000000000000000000000008152600401611dae90613c0a565b60405180910390fd5b6000829050600073ffffffffffffffffffffffffffffffffffffffff168573ffffffffffffffffffffffffffffffffffffffff1603611dfe57611df9816121ac565b611e3d565b8373ffffffffffffffffffffffffffffffffffffffff168573ffffffffffffffffffffffffffffffffffffffff1614611e3c57611e3b85826121f5565b5b5b600073ffffffffffffffffffffffffffffffffffffffff168473ffffffffffffffffffffffffffffffffffffffff1603611e7f57611e7a81612362565b611ebe565b8473ffffffffffffffffffffffffffffffffffffffff168473ffffffffffffffffffffffffffffffffffffffff1614611ebd57611ebc8482612433565b5b5b5050505050565b50505050565b611ee58282604051806020016040528060008152506124b2565b5050565b6001816000016000828254019250508190555050565b6000611f208473ffffffffffffffffffffffffffffffffffffffff1661250d565b15612079578373ffffffffffffffffffffffffffffffffffffffff1663150b7a02611f49611433565b8786866040518563ffffffff1660e01b8152600401611f6b9493929190613c7f565b6020604051808303816000875af1925050508015611fa757506040513d601f19601f82011682018060405250810190611fa49190613ce0565b60015b612029573d8060008114611fd7576040519150601f19603f3d011682016040523d82523d6000602084013e611fdc565b606091505b506000815103612021576040517f08c379a000000000000000000000000000000000000000000000000000000000815260040161201890613b78565b60405180910390fd5b805181602001fd5b63150b7a0260e01b7bffffffffffffffffffffffffffffffffffffffffffffffffffffffff1916817bffffffffffffffffffffffffffffffffffffffffffffffffffffffff19161491505061207e565b600190505b949350505050565b60018111156121a657600073ffffffffffffffffffffffffffffffffffffffff168473ffffffffffffffffffffffffffffffffffffffff161461211a5780600360008673ffffffffffffffffffffffffffffffffffffffff1673ffffffffffffffffffffffffffffffffffffffff16815260200190815260200160002060008282546121129190613d0d565b925050819055505b600073ffffffffffffffffffffffffffffffffffffffff168373ffffffffffffffffffffffffffffffffffffffff16146121a55780600360008573ffffffffffffffffffffffffffffffffffffffff1673ffffffffffffffffffffffffffffffffffffffff168152602001908152602001600020600082825461219d919061397e565b925050819055505b5b50505050565b6008805490506009600083815260200190815260200160002081905550600881908060018154018082558091505060019003906000526020600020016000909190919091505550565b6000600161220284610db6565b61220c9190613d0d565b90506000600760008481526020019081526020016000205490508181146122f1576000600660008673ffffffffffffffffffffffffffffffffffffffff1673ffffffffffffffffffffffffffffffffffffffff168152602001908152602001600020600084815260200190815260200160002054905080600660008773ffffffffffffffffffffffffffffffffffffffff1673ffffffffffffffffffffffffffffffffffffffff168152602001908152602001600020600084815260200190815260200160002081905550816007600083815260200190815260200160002081905550505b6007600084815260200190815260200160002060009055600660008573ffffffffffffffffffffffffffffffffffffffff1673ffffffffffffffffffffffffffffffffffffffff16815260200190815260200160002060008381526020019081526020016000206000905550505050565b600060016008805490506123769190613d0d565b90506000600960008481526020019081526020016000205490506000600883815481106123a6576123a56135dc565b5b9060005260206000200154905080600883815481106123c8576123c76135dc565b5b90600052602060002001819055508160096000838152602001908152602001600020819055506009600085815260200190815260200160002060009055600880548061241757612416613d41565b5b6001900381819060005260206000200160009055905550505050565b600061243e83610db6565b905081600660008573ffffffffffffffffffffffffffffffffffffffff1673ffffffffffffffffffffffffffffffffffffffff168152602001908152602001600020600083815260200190815260200160002081905550806007600084815260200190815260200160002081905550505050565b6124bc8383612530565b6124c96000848484611eff565b612508576040517f08c379a00000000000000000000000000000000000000000000000000000000081526004016124ff90613b78565b60405180910390fd5b505050565b6000808273ffffffffffffffffffffffffffffffffffffffff163b119050919050565b600073ffffffffffffffffffffffffffffffffffffffff168273ffffffffffffffffffffffffffffffffffffffff160361259f576040517f08c379a000000000000000000000000000000000000000000000000000000000815260040161259690613dbc565b60405180910390fd5b6125a881611d26565b156125e8576040517f08c379a00000000000000000000000000000000000000000000000000000000081526004016125df90613e28565b60405180910390fd5b6125f6600083836001611d67565b6125ff81611d26565b1561263f576040517f08c379a000000000000000000000000000000000000000000000000000000000815260040161263690613e28565b60405180910390fd5b6001600360008473ffffffffffffffffffffffffffffffffffffffff1673ffffffffffffffffffffffffffffffffffffffff16815260200190815260200160002060008282540192505081905550816002600083815260200190815260200160002060006101000a81548173ffffffffffffffffffffffffffffffffffffffff021916908373ffffffffffffffffffffffffffffffffffffffff160217905550808273ffffffffffffffffffffffffffffffffffffffff16600073ffffffffffffffffffffffffffffffffffffffff167fddf252ad1be2c89b69c2b068fc378daa952ba7f163c4a11628f55a4df523b3ef60405160405180910390a4612749600083836001611ec5565b5050565b82805461275990612fac565b90600052602060002090601f01602090048101928261277b57600085556127c2565b82601f1061279457805160ff19168380011785556127c2565b828001600101855582156127c2579182015b828111156127c15782518255916020019190600101906127a6565b5b5090506127cf91906127d3565b5090565b5b808211156127ec5760008160009055506001016127d4565b5090565b6000604051905090565b600080fd5b600080fd5b60007fffffffff0000000000000000000000000000000000000000000000000000000082169050919050565b61283981612804565b811461284457600080fd5b50565b60008135905061285681612830565b92915050565b600060208284031215612872576128716127fa565b5b600061288084828501612847565b91505092915050565b60008115159050919050565b61289e81612889565b82525050565b60006020820190506128b96000830184612895565b92915050565b600081519050919050565b600082825260208201905092915050565b60005b838110156128f95780820151818401526020810190506128de565b83811115612908576000848401525b50505050565b6000601f19601f8301169050919050565b600061292a826128bf565b61293481856128ca565b93506129448185602086016128db565b61294d8161290e565b840191505092915050565b60006020820190508181036000830152612972818461291f565b905092915050565b6000819050919050565b61298d8161297a565b811461299857600080fd5b50565b6000813590506129aa81612984565b92915050565b6000602082840312156129c6576129c56127fa565b5b60006129d48482850161299b565b91505092915050565b600073ffffffffffffffffffffffffffffffffffffffff82169050919050565b6000612a08826129dd565b9050919050565b612a18816129fd565b82525050565b6000602082019050612a336000830184612a0f565b92915050565b612a42816129fd565b8114612a4d57600080fd5b50565b600081359050612a5f81612a39565b92915050565b60008060408385031215612a7c57612a7b6127fa565b5b6000612a8a85828601612a50565b9250506020612a9b8582860161299b565b9150509250929050565b612aae8161297a565b82525050565b6000602082019050612ac96000830184612aa5565b92915050565b600080600060608486031215612ae857612ae76127fa565b5b6000612af686828701612a50565b9350506020612b0786828701612a50565b9250506040612b188682870161299b565b9150509250925092565b600080fd5b600080fd5b7f4e487b7100000000000000000000000000000000000000000000000000000000600052604160045260246000fd5b612b648261290e565b810181811067ffffffffffffffff82111715612b8357612b82612b2c565b5b80604052505050565b6000612b966127f0565b9050612ba28282612b5b565b919050565b600067ffffffffffffffff821115612bc257612bc1612b2c565b5b612bcb8261290e565b9050602081019050919050565b82818337600083830152505050565b6000612bfa612bf584612ba7565b612b8c565b905082815260208101848484011115612c1657612c15612b27565b5b612c21848285612bd8565b509392505050565b600082601f830112612c3e57612c3d612b22565b5b8135612c4e848260208601612be7565b91505092915050565b600060208284031215612c6d57612c6c6127fa565b5b600082013567ffffffffffffffff811115612c8b57612c8a6127ff565b5b612c9784828501612c29565b91505092915050565b600060208284031215612cb657612cb56127fa565b5b6000612cc484828501612a50565b91505092915050565b600081519050919050565b600082825260208201905092915050565b6000819050602082019050919050565b612d028161297a565b82525050565b6000612d148383612cf9565b60208301905092915050565b6000602082019050919050565b6000612d3882612ccd565b612d428185612cd8565b9350612d4d83612ce9565b8060005b83811015612d7e578151612d658882612d08565b9750612d7083612d20565b925050600181019050612d51565b5085935050505092915050565b60006020820190508181036000830152612da58184612d2d565b905092915050565b612db681612889565b8114612dc157600080fd5b50565b600081359050612dd381612dad565b92915050565b60008060408385031215612df057612def6127fa565b5b6000612dfe85828601612a50565b9250506020612e0f85828601612dc4565b9150509250929050565b600067ffffffffffffffff821115612e3457612e33612b2c565b5b612e3d8261290e565b9050602081019050919050565b6000612e5d612e5884612e19565b612b8c565b905082815260208101848484011115612e7957612e78612b27565b5b612e84848285612bd8565b509392505050565b600082601f830112612ea157612ea0612b22565b5b8135612eb1848260208601612e4a565b91505092915050565b60008060008060808587031215612ed457612ed36127fa565b5b6000612ee287828801612a50565b9450506020612ef387828801612a50565b9350506040612f048782880161299b565b925050606085013567ffffffffffffffff811115612f2557612f246127ff565b5b612f3187828801612e8c565b91505092959194509250565b60008060408385031215612f5457612f536127fa565b5b6000612f6285828601612a50565b9250506020612f7385828601612a50565b9150509250929050565b7f4e487b7100000000000000000000000000000000000000000000000000000000600052602260045260246000fd5b60006002820490506001821680612fc457607f821691505b602082108103612fd757612fd6612f7d565b5b50919050565b7f4552433732313a20617070726f76616c20746f2063757272656e74206f776e6560008201527f7200000000000000000000000000000000000000000000000000000000000000602082015250565b60006130396021836128ca565b915061304482612fdd565b604082019050919050565b600060208201905081810360008301526130688161302c565b9050919050565b7f4552433732313a20617070726f76652063616c6c6572206973206e6f7420746f60008201527f6b656e206f776e6572206f7220617070726f76656420666f7220616c6c000000602082015250565b60006130cb603d836128ca565b91506130d68261306f565b604082019050919050565b600060208201905081810360008301526130fa816130be565b9050919050565b7f4552433732313a2063616c6c6572206973206e6f7420746f6b656e206f776e6560008201527f72206f7220617070726f76656400000000000000000000000000000000000000602082015250565b600061315d602d836128ca565b915061316882613101565b604082019050919050565b6000602082019050818103600083015261318c81613150565b9050919050565b7f455243373231456e756d657261626c653a206f776e657220696e646578206f7560008201527f74206f6620626f756e6473000000000000000000000000000000000000000000602082015250565b60006131ef602b836128ca565b91506131fa82613193565b604082019050919050565b6000602082019050818103600083015261321e816131e2565b9050919050565b7f5468697320636f6c6c656374696f6e20697320736f6c64206f75742100000000600082015250565b600061325b601c836128ca565b915061326682613225565b602082019050919050565b6000602082019050818103600083015261328a8161324e565b9050919050565b7f596f75206861766520726563656976656420746865206d6178696d756d20616d60008201527f6f756e74206f66204e46547320616c6c6f7765642e0000000000000000000000602082015250565b60006132ed6035836128ca565b91506132f882613291565b604082019050919050565b6000602082019050818103600083015261331c816132e0565b9050919050565b7f4e6f7420656e6f75676820657468657220746f207075726368617365204e465460008201527f732e000000000000000000000000000000000000000000000000000000000000602082015250565b600061337f6022836128ca565b915061338a82613323565b604082019050919050565b600060208201905081810360008301526133ae81613372565b9050919050565b7f4e487b7100000000000000000000000000000000000000000000000000000000600052601160045260246000fd5b60006133ef8261297a565b91507fffffffffffffffffffffffffffffffffffffffffffffffffffffffffffffffff8203613421576134206133b5565b5b600182019050919050565b7f4e6f206574686572206c65667420746f20776974686472617700000000000000600082015250565b60006134626019836128ca565b915061346d8261342c565b602082019050919050565b6000602082019050818103600083015261349181613455565b9050919050565b600081905092915050565b50565b60006134b3600083613498565b91506134be826134a3565b600082019050919050565b60006134d4826134a6565b9150819050919050565b7f5472616e73666572206661696c65642e00000000000000000000000000000000600082015250565b60006135146010836128ca565b915061351f826134de565b602082019050919050565b6000602082019050818103600083015261354381613507565b9050919050565b7f455243373231456e756d657261626c653a20676c6f62616c20696e646578206f60008201527f7574206f6620626f756e64730000000000000000000000000000000000000000602082015250565b60006135a6602c836128ca565b91506135b18261354a565b604082019050919050565b600060208201905081810360008301526135d581613599565b9050919050565b7f4e487b7100000000000000000000000000000000000000000000000000000000600052603260045260246000fd5b7f4552433732313a20696e76616c696420746f6b656e2049440000000000000000600082015250565b60006136416018836128ca565b915061364c8261360b565b602082019050919050565b6000602082019050818103600083015261367081613634565b9050919050565b7f4552433732313a2061646472657373207a65726f206973206e6f74206120766160008201527f6c6964206f776e65720000000000000000000000000000000000000000000000602082015250565b60006136d36029836128ca565b91506136de82613677565b604082019050919050565b60006020820190508181036000830152613702816136c6565b9050919050565b7f4e6f7420656e6f756768204e465473206c65667420746f207265736572766500600082015250565b600061373f601f836128ca565b915061374a82613709565b602082019050919050565b6000602082019050818103600083015261376e81613732565b9050919050565b600081905092915050565b600061378b826128bf565b6137958185613775565b93506137a58185602086016128db565b80840191505092915050565b60006137bd8284613780565b915081905092915050565b7f4f776e61626c653a206e6577206f776e657220697320746865207a65726f206160008201527f6464726573730000000000000000000000000000000000000000000000000000602082015250565b60006138246026836128ca565b915061382f826137c8565b604082019050919050565b6000602082019050818103600083015261385381613817565b9050919050565b7f4552433732313a207472616e736665722066726f6d20696e636f72726563742060008201527f6f776e6572000000000000000000000000000000000000000000000000000000602082015250565b60006138b66025836128ca565b91506138c18261385a565b604082019050919050565b600060208201905081810360008301526138e5816138a9565b9050919050565b7f4552433732313a207472616e7366657220746f20746865207a65726f2061646460008201527f7265737300000000000000000000000000000000000000000000000000000000602082015250565b60006139486024836128ca565b9150613953826138ec565b604082019050919050565b600060208201905081810360008301526139778161393b565b9050919050565b60006139898261297a565b91506139948361297a565b9250827fffffffffffffffffffffffffffffffffffffffffffffffffffffffffffffffff038211156139c9576139c86133b5565b5b828201905092915050565b60006139df8261297a565b91506139ea8361297a565b9250817fffffffffffffffffffffffffffffffffffffffffffffffffffffffffffffffff0483118215151615613a2357613a226133b5565b5b828202905092915050565b7f4f776e61626c653a2063616c6c6572206973206e6f7420746865206f776e6572600082015250565b6000613a646020836128ca565b9150613a6f82613a2e565b602082019050919050565b60006020820190508181036000830152613a9381613a57565b9050919050565b7f4552433732313a20617070726f766520746f2063616c6c657200000000000000600082015250565b6000613ad06019836128ca565b9150613adb82613a9a565b602082019050919050565b60006020820190508181036000830152613aff81613ac3565b9050919050565b7f4552433732313a207472616e7366657220746f206e6f6e20455243373231526560008201527f63656976657220696d706c656d656e7465720000000000000000000000000000602082015250565b6000613b626032836128ca565b9150613b6d82613b06565b604082019050919050565b60006020820190508181036000830152613b9181613b55565b9050919050565b7f455243373231456e756d657261626c653a20636f6e736563757469766520747260008201527f616e7366657273206e6f7420737570706f727465640000000000000000000000602082015250565b6000613bf46035836128ca565b9150613bff82613b98565b604082019050919050565b60006020820190508181036000830152613c2381613be7565b9050919050565b600081519050919050565b600082825260208201905092915050565b6000613c5182613c2a565b613c5b8185613c35565b9350613c6b8185602086016128db565b613c748161290e565b840191505092915050565b6000608082019050613c946000830187612a0f565b613ca16020830186612a0f565b613cae6040830185612aa5565b8181036060830152613cc08184613c46565b905095945050505050565b600081519050613cda81612830565b92915050565b600060208284031215613cf657613cf56127fa565b5b6000613d0484828501613ccb565b91505092915050565b6000613d188261297a565b9150613d238361297a565b925082821015613d3657613d356133b5565b5b828203905092915050565b7f4e487b7100000000000000000000000000000000000000000000000000000000600052603160045260246000fd5b7f4552433732313a206d696e7420746f20746865207a65726f2061646472657373600082015250565b6000613da66020836128ca565b9150613db182613d70565b602082019050919050565b60006020820190508181036000830152613dd581613d99565b9050919050565b7f4552433732313a20746f6b656e20616c7265616479206d696e74656400000000600082015250565b6000613e12601c836128ca565b9150613e1d82613ddc565b602082019050919050565b60006020820190508181036000830152613e4181613e05565b905091905056fea2646970667358221220588ef4efe22e3d185481bae49d00a946b14cf94d63be56c34bca70bd3f4d709c64736f6c634300080d0033",
  "immutableReferences": {},
  "source": "//SPDX-License-Identifier: MIT\npragma solidity ^0.8.13;\n\nimport \"@openzeppelin/contracts/utils/Counters.sol\";\nimport \"@openzeppelin/contracts/access/Ownable.sol\";\nimport \"@openzeppelin/contracts/utils/math/SafeMath.sol\";\nimport \"@openzeppelin/contracts/token/ERC721/extensions/ERC721Enumerable.sol\";\n\ncontract NFTCollection is ERC721Enumerable, Ownable {\n    using SafeMath for uint256;\n    using Counters for Counters.Counter;\n\n    Counters.Counter private _tokenIds;\n    // The max number of NFTs in the collection\n    uint256 public constant MAX_SUPPLY = 10;\n    // The mint price for the collection\n    uint256 public constant PRICE = 0.00001 ether;\n    // The max number of mints per wallet\n    uint256 public constant MAX_PER_MINT = 5;\n\n    string public baseTokenURI;\n\n    constructor(\n        string memory baseURI,\n        string memory name,\n        string memory symbol\n    ) ERC721(name, symbol) {\n        setBaseURI(baseURI);\n    }\n\n    /**\n     * @dev See {IERC721Metadata-tokenURI}.\n     */\n    function tokenURI(uint256 tokenId)\n        public\n        view\n        virtual\n        override\n        returns (string memory)\n    {\n        _requireMinted(tokenId);\n\n        string memory baseURI = _baseURI();\n        return\n            bytes(baseURI).length > 0 ? string(abi.encodePacked(baseURI)) : \"\";\n    }\n\n    function _baseURI() internal view virtual override returns (string memory) {\n        return baseTokenURI;\n    }\n\n    function setBaseURI(string memory _baseTokenURI) public onlyOwner {\n        baseTokenURI = _baseTokenURI;\n    }\n\n    function mintNFTs(uint256 _count) public payable {\n        uint256 totalMinted = _tokenIds.current();\n\n        require(\n            totalMinted.add(_count) <= MAX_SUPPLY,\n            \"This collection is sold out!\"\n        );\n        require(\n            _count > 0 && _count <= MAX_PER_MINT,\n            \"You have received the maximum amount of NFTs allowed.\"\n        );\n        require(\n            msg.value >= PRICE.mul(_count),\n            \"Not enough ether to purchase NFTs.\"\n        );\n\n        for (uint256 i = 0; i < _count; i++) {\n            _mintSingleNFT();\n        }\n    }\n\n    function _mintSingleNFT() private {\n        uint256 newTokenID = _tokenIds.current();\n        _safeMint(msg.sender, newTokenID);\n        _tokenIds.increment();\n    }\n\n    // Returns the ids of the NFTs owned by the wallet address\n    function tokensOfOwner(address _owner)\n        external\n        view\n        returns (uint256[] memory)\n    {\n        uint256 tokenCount = balanceOf(_owner);\n        uint256[] memory tokensId = new uint256[](tokenCount);\n\n        for (uint256 i = 0; i < tokenCount; i++) {\n            tokensId[i] = tokenOfOwnerByIndex(_owner, i);\n        }\n        return tokensId;\n    }\n\n    // Withdraw the ether in the contract\n    function withdraw() public payable onlyOwner {\n        uint256 balance = address(this).balance;\n        require(balance > 0, \"No ether left to withdraw\");\n\n        (bool success, ) = (msg.sender).call{value: balance}(\"\");\n        require(success, \"Transfer failed.\");\n    }\n\n    // Reserve NFTs only for owner to mint for free\n    function reserveNFTs(uint256 _count) public onlyOwner {\n        uint256 totalMinted = _tokenIds.current();\n\n        require(\n            totalMinted.add(_count) < MAX_SUPPLY,\n            \"Not enough NFTs left to reserve\"\n        );\n\n        for (uint256 i = 0; i < _count; i++) {\n            _mintSingleNFT();\n        }\n    }\n}\n",
  "sourcePath": "/Users/idrisolubisi/Dev/Git/projects/new-demo/contracts/NFTCollection.sol",
  "compiler": {
    "name": "solc",
    "version": "0.8.13+commit.abaa5c0e.Emscripten.clang"
  },
  "schemaVersion": "3.4.9",
  "updatedAt": "2022-11-17T10:56:25.571Z",
  "networkType": "ethereum",
  "devdoc": {
    "kind": "dev",
    "methods": {
      "approve(address,uint256)": {
        "details": "See {IERC721-approve}."
      },
      "balanceOf(address)": {
        "details": "See {IERC721-balanceOf}."
      },
      "getApproved(uint256)": {
        "details": "See {IERC721-getApproved}."
      },
      "isApprovedForAll(address,address)": {
        "details": "See {IERC721-isApprovedForAll}."
      },
      "name()": {
        "details": "See {IERC721Metadata-name}."
      },
      "owner()": {
        "details": "Returns the address of the current owner."
      },
      "ownerOf(uint256)": {
        "details": "See {IERC721-ownerOf}."
      },
      "renounceOwnership()": {
        "details": "Leaves the contract without owner. It will not be possible to call `onlyOwner` functions anymore. Can only be called by the current owner. NOTE: Renouncing ownership will leave the contract without an owner, thereby removing any functionality that is only available to the owner."
      },
      "safeTransferFrom(address,address,uint256)": {
        "details": "See {IERC721-safeTransferFrom}."
      },
      "safeTransferFrom(address,address,uint256,bytes)": {
        "details": "See {IERC721-safeTransferFrom}."
      },
      "setApprovalForAll(address,bool)": {
        "details": "See {IERC721-setApprovalForAll}."
      },
      "supportsInterface(bytes4)": {
        "details": "See {IERC165-supportsInterface}."
      },
      "symbol()": {
        "details": "See {IERC721Metadata-symbol}."
      },
      "tokenByIndex(uint256)": {
        "details": "See {IERC721Enumerable-tokenByIndex}."
      },
      "tokenOfOwnerByIndex(address,uint256)": {
        "details": "See {IERC721Enumerable-tokenOfOwnerByIndex}."
      },
      "tokenURI(uint256)": {
        "details": "See {IERC721Metadata-tokenURI}."
      },
      "totalSupply()": {
        "details": "See {IERC721Enumerable-totalSupply}."
      },
      "transferFrom(address,address,uint256)": {
        "details": "See {IERC721-transferFrom}."
      },
      "transferOwnership(address)": {
        "details": "Transfers ownership of the contract to a new account (`newOwner`). Can only be called by the current owner."
      }
    },
    "version": 1
  },
  "userdoc": {
    "kind": "user",
    "methods": {},
    "version": 1
  }
}